:02000004080AE8
:1000000000000A0874110A08000006000600050135
:0800100004027C050000000061
:040018002C0E0A0898
:10001C0009480A4908B5884205D0094A824202D0EB
:10002C00121A00F0B9FE0748074A0021121A00F014
:10003C00BEFE064808BD00BF00000020E4100A0800
:10004C006800002068000020DC050020DC05002092
:10005C0070B500F0D9FB074B074C1E46E41AA408F8
:10006C000025A54204D056F8253098470135F8E70D
:10007C0070BD00BFA0100A08DC100A0800F011B80F
:10008C0008B500F00FF8BDE8084000F07FBB00F0A9
:10009C0025B90078B0FA80F040097047012303704D
:1000AC0070477047704700F095B800F093B800F0B7
:1000BC0091B8000008B5024B1B689B6C019308BDFE
:1000CC00C001060808B5024B1B681B68019308BDEC
:1000DC00D801060808B5024B1B681B69019308BDC3
:1000EC00D801060808B5024B1B685B69019308BD73
:1000FC00D801060808B5024B1B689B69019308BD23
:10010C00D801060808B5024B1B68DB69019308BDD2
:10011C00D801060808B5024B1B681B6A019308BD81
:10012C00D801060808B5024B1B689B69019308BDF2
:10013C00C401060808B5024B1B685B6A019308BD35
:10014C00C401060808B5024B1B689B6A019308BDE5
:10015C00C401060808B5024B1B68DB6A019308BD95
:10016C00C401060808B5024B1B681B6B019308BD44
:10017C00C401060808B5024B1B685B6B019308BDF4
:10018C00C401060808B5024B1B681B6C019308BD23
:10019C00C401060808B5024B1B681B6B019308BD14
:1001AC00D001060808B5024B1B685B68019308BDBB
:1001BC009C01060808B5024B1B685B69019308BDDE
:1001CC009C01060808B5024B1B68DB69019308BD4E
:1001DC00B401060808B5024B1B681B68019308BDE7
:1001EC00B001060808B5024B1B68DB6B019308BD18
:1001FC00CC01060808B5024B1B685B68019308BD6F
:10020C00C801060808B5024B1B689B68019308BD22
:10021C00C801060808B5024B1B68DB68019308BDD2
:10022C00C801060808B5024B1B681B69019308BD81
:10023C00C801060808B5024B1B685B69019308BD31
:10024C00C801060808B5024B1B689B69019308BDE1
:10025C00C801060808B5024B1B68DB69019308BD91
:10026C00C801060808B5024B1B681B6A019308BD40
:10027C00C801060808B5024B1B681B6B019308BD2F
:10028C00C801060808B5024B1B685B6B019308BDDF
:10029C00C801060808B5024B1B685B68019308BDD2
:1002AC00A401060808B5034B1B68D3F890300193E2
:1002BC0008BD0000A401060808B5034B1B68D3F861
:1002CC009C30019308BD0000A401060808B5024B40
:1002DC001B681B68019308BDA001060808B5024BFA
:1002EC001B685B68019308BDA001060800231A4631
:1002FC004068FFF77FBF002202214068FFF78ABFEA
:10030C00002211464068FFF77DBF0022114640686D
:10031C00FFF788BF00231A4619464068FFF78ABFCB
:10032C0000231A4619464068FFF78CBF002281F063
:10033C0001014068FFF78EBF00224068FFF79ABFAB
:10034C00002211464068FFF79DBF0022114640680D
:10035C00FFF788BF70B516468EB0044608A800F0AB
:10036C0097F91122002103A800F021FD304600F07E
:10037C004FFD00250A4B009581B25B6803AA3046FD
:10038C00FFF798FE20B12946204600F0A1F903E0C2
:10039C0003A9204600F08AF920460EB070BD00BFBC
:1003AC0074000020024B034A1A6000225A60704706
:1003BC006C000020480E0A08002211464068FFF726
:1003CC0031BFF0B5164689B011220F460446002104
:1003DC0003A800F0ECFC304600F01AFD0025009557
:1003EC0081B27B6803AA3046FFF764FE20B1294630
:1003FC00204600F06DF903E003A9204600F056F901
:10040C00204609B0F0BD002211464068FFF72ABF14
:10041C00002211464068FFF735BF00224068FFF705
:10042C0029BF002281F001014068FFF713BF0023B0
:10043C001A4619464068FFF705BF00231A461946AD
:10044C004068FFF7F7BE002211464068FFF7DABE9E
:10045C00002202214068FFF7DDBE00231A464068E7
:10046C00FFF7C8BE024B04225A60024A1A6070475A
:10047C00740000207C0E0A08704710B50446102149
:10048C0000F031FB204610BD70B504460E46074BFC
:10049C000025036040F80C5FFFF77CFE30462671A8
:1004AC00FFF790FEA560204670BD00BFB00E0A0895
:1004BC0041747047704708B50021007CFFF71AFEA5
:1004CC0030EA200028BF4FF0FF3008BD08B50121ED
:1004DC00007CFFF70FFE30EA200028BF4FF0FF3002
:1004EC0008BD08B5007CFFF7FDFD20EAE07008BDF3
:1004FC0008B5007CFFF7EEFD20EAE07008BD007C3B
:10050C00FFF708BE10B50446142100F0ECFA2046A3
:10051C0010BD38B50446007C0D46FFF7E3FD0028FE
:10052C0001DC607C28B12946207CFFF7EBFD20EA3A
:10053C00E07038BD10B50446002363604FF47A7345
:10054C00A360054B08462360012321746374114694
:10055C00FFF7B8FD204610BDC00E0A0810B50446C2
:10056C001422002100F023FC054B20466360054B50
:10057C00E36040F2011323818123238210BD00BF6D
:10058C00010100208000002030B50E4D87B001A87D
:10059C00FFF7E4FF296811F0010410D12846FFF79A
:1005AC0078FD60B101AA21460748FFF7C3FF284632
:1005BC00FFF774FD054A0649034800F08FFA02481C
:1005CC0007B030BD7C000020040200206800002031
:1005DC00C1040A0810B504461422002100F0E7FB00
:1005EC00054B20466360054BE36040F20113238109
:1005FC008123238210BD00BFB40200201C02002006
:10060C0010B50E4C86B001A8FFF7E4FF2368DB079A
:10061C0010D42046FFF73DFD60B101AA0121084826
:10062C00FFF788FF2046FFF739FD064A06490448C4
:10063C0000F054FA024806B010BD00BF18020020AA
:10064C00A002002068000020C1040A08704710B501
:10065C000446182100F047FA204610BDF8B50F46A5
:10066C0000F10806051D002416F8011D0A22384663
:10067C0000F06FF9AE42044407D0002CF4D02E21C8
:10068C00384600F039F90444EEE72046F8BD000086
:10069C0010B50446044B112240F8043B002100F035
:1006AC0086FB204610BD00BFF00E0A080346074A21
:1006BC0010B543F8042B01F1100251F8044B914290
:1006CC0043F8044BF9D10A781A7010BDF00E0A08E1
:1006DC00024A41600260042202757047F00E0A085B
:1006EC0010B59DF8084044EA032343EA024242EA6B
:1006FC00016104234160037510BD000037B5044D42
:10070C0005609DF818500095FFF7EAFF03B030BD67
:10071C00F00E0A0810B58368044613B10322014693
:10072C009847204610BD000008B5144B33B1FFF7B5
:10073C002BFF03681B699847002816DC104B33B15C
:10074C0000F060F903681B699847002810DC0D4B1A
:10075C000BB1AFF300800C4B7BB1FFF751FF03687B
:10076C001B699847002806DC08BDAFF30080E5E75D
:10077C00AFF30080EBE7AFF3008008BD0000000092
:10078C0000000000000000000000000008B5FFF7AA
:10079C00CBFFFFF70FFD014B186008BD18050020BB
:1007AC000248034A0349121A00F0F6BA004002400C
:1007BC0004400240E0100A0807B5002300931A46D3
:1007CC006FF07701FFF778FD03B05DF804FB0000D4
:1007DC0007B543880A2B08D0502B09D1094B1B684D
:1007EC003BB103B05DF804EB1847FFF7E5FF06E0FB
:1007FC00002300931A466FF07701FFF75DFD03B0FD
:10080C005DF804FBB803002038B5104C104D23687C
:10081C00AB42104B0CBF012200221A7002D0FFF722
:10082C00BFFF2560FFF7BEFC044600F0C9FA0A4B77
:10083C0013B12046AFF3008000210748FFF7D2FC2C
:10084C00BDE8384000210548FFF72CBD00400240B0
:10085C001E1C279ABC03002000000000DD070A08BC
:10086C0010B50446FFF756FF204610BD0348002381
:10087C008360034A034900F031B900BFC003002074
:10088C00680000206D080A08024B1A68024B1A60B7
:10089C00704700BF00000020D0030020014A024B2B
:1008AC001A6070479B0F0A08D4030020F8B506465F
:1008BC000D468F180024BD420CD0336815F8011B6F
:1008CC009B6830469847002801DB0444F3E7002C72
:1008DC0008BF04462046F8BD70B505460C460846D0
:1008EC0049B100F095FA2B68024621462846BDE82E
:1008FC007040DB68184770BD03689B681847012A75
:10090C0098BF0A2230B50B468BB000218DF824100D
:10091C000DF12304B3FBF2F505FB1233DBB2092B0B
:10092C0094BF30333733DBB2214604F801392B4600
:10093C00002DEFD1FFF7D0FF0BB030BD10B422B9B2
:10094C000368C9B29B6810BC1847D2B210BCFFF741
:10095C00D6BFFFF7F3BF70474174704708B5007CF2
:10096C00FFF710FC20EAE07008BD08B5007CFFF72B
:10097C00E9FB20EAE07008BD08B5007CFFF7F2FB4C
:10098C0030EA200028BF4FF0FF3008BD08B5007CCE
:10099C00FFF7E0FB30EA200028BF4FF0FF3008BD26
:1009AC00007CFFF7E7BB10B50446142100F09BF860
:1009BC00204610BD70B5457C04460E4625B9007C1A
:1009CC00FFF7E0FB002805DD3146207CBDE87040D8
:1009DC00FFF7B0BB284670BD10B50446084611465B
:1009EC00002262604FF47A72A260054A2074226081
:1009FC00012262741A46FFF795FB204610BD00BF1A
:100A0C0014100A0838B50C4D296811F0010411D1E5
:100A1C002846FFF73EFB68B1084A2146084B0948B7
:100A2C00FFF7DAFF2846FFF739FB074A0749054865
:100A3C0000F054F8034838BD700400207404002002
:100A4C00EC030020D80300206800002063090A088A
:100A5C004FF6FF72034B0020187058809A80FFF7F6
:100A6C0019BC00BFF804002013B5084C00231A462B
:100A7C00194600932046FFF741FE2046044A0549DB
:100A8C0002B0BDE8104000F029B800BF00050020FE
:100A9C006800002059060A0870B50C4C0C4E0D4D20
:100AAC0000212046FFF7F0FC20460B4C324629462D
:100ABC0000F014F801212046FFF7E6FC32462946E7
:100ACC002046BDE8704000F009B800BF1C050020AE
:100ADC006800002085040A082C0500200B460146FE
:100AEC00184600F04BB9FFF7D2BA0000184B1A6841
:100AFC00D1075CBF01221A60164B1A68D2075CBF83
:100B0C0001221A60144B1A68D0075CBF01221A60CC
:100B1C00124B1A68D1075CBF01221A60104B1A687D
:100B2C00D2075CBF01221A600E4B1A68D0075CBF5B
:100B3C0001221A600C4B1A68D1075CBF01221A60A3
:100B4C000A4B1A68D2075CBF01221A60704700BFBB
:100B5C005805002054050020500500204C050020AD
:100B6C004805002044050020400500203C050020DD
:100B7C00244B1A68D0075CBF01221A60224B1A68FA
:100B8C00D1075CBF01221A60204B1A68D2075CBFE8
:100B9C0001221A601E4B1A68D0075CBF01221A6032
:100BAC001C4B1A68D1075CBF01221A601A4B1A68D9
:100BBC00D2075CBF01221A60184B1A68D0075CBFC1
:100BCC0001221A60164B1A68D1075CBF01221A6009
:100BDC00144B1A68D2075CBF01221A60124B1A68B8
:100BEC00D0075CBF01221A60104B1A68D1075CBF9A
:100BFC0001221A600E4B1A68D2075CBF01221A60E0
:100C0C00704700BF88050020840500208005002067
:100C1C007C0500207805002074050020700500205C
:100C2C006C0500206805002064050020600500208C
:100C3C005C050020244B1A68D0075CBF01221A60A7
:100C4C00224B1A68D1075CBF01221A60204B1A682C
:100C5C00D2075CBF01221A601E4B1A68D0075CBF1A
:100C6C0001221A601C4B1A68D1075CBF01221A6062
:100C7C001A4B1A68D2075CBF01221A60184B1A680B
:100C8C00D0075CBF01221A60164B1A68D1075CBFF3
:100C9C0001221A60144B1A68D2075CBF01221A6039
:100CAC00124B1A68D0075CBF01221A60104B1A68ED
:100CBC00D1075CBF01221A600E4B1A68D2075CBFC9
:100CCC0001221A60704700BFB8050020B40500204F
:100CDC00B0050020AC050020A8050020A4050020CC
:100CEC00A00500209C0500209805002094050020FC
:100CFC00900500208C050020184B1A68D1075CBFAA
:100D0C0001221A60164B1A68D2075CBF01221A60C6
:100D1C00144B1A68D0075CBF01221A60124B1A6878
:100D2C00D1075CBF01221A60104B1A68D2075CBF56
:100D3C0001221A600E4B1A68D0075CBF01221A60A0
:100D4C000C4B1A68D1075CBF01221A600A4B1A6857
:100D5C00D2075CBF01221A60704700BFD805002083
:100D6C00D4050020D0050020CC050020C8050020AB
:100D7C00C4050020C0050020BC05002010B5054CA2
:100D8C0013462CB10A4601460220AFF3008010BD79
:100D9C00204610BD0000000010B5431E0A449142CD
:100DAC0004D011F8014B03F8014FF8E710BD0346CE
:100DBC000244934202D003F8011BFAE7704700008B
:100DCC0038B5124B05461C68A36BD3B91820FFF736
:100DDC007DFA43F20E33A06303804AF6CD33438091
:100DEC0041F2342383804EF26D63C3804DF6EC6385
:100DFC000381052343810B23838101220023C0E956
:100E0C000423A36B00221D615A6138BD64000020CD
:100E1C00034613F8012B002AFBD1181A013870472E
:100E2C001D000A085D000A0889000A088D000A08DE
:100E3C00000000000000000000000000F9020A0899
:100E4C0003030A080D030A0817030A0821030A08FA
:100E5C002D030A0839030A0845030A084D030A083A
:100E6C0057030A0861030A08000000000000000094
:100E7C0067040A085D040A0853040A08C5030A0833
:100E8C0047040A083B040A082F040A0827040A0826
:100E9C001D040A0813040A08CF030A080000000006
:100EAC000000000085040A0887040A0800000000FE
:100EBC0000000000C1040A0811050A081F050A08F1
:100ECC00B9080A08FD040A08C3040A08D9040A0868
:100EDC000B050A08EF040A08BD040A08000000000C
:100EEC000000000069060A0859060A085B060A0891
:100EFC005A00252B3033643A253032750025592D94
:100F0C00256D2D25645425483A254D3A2553257ACF
:100F1C000061736374696D6500626175640053658B
:100F2C007269616C0055534253657269616C310092
:100F3C007479706500706172616D00636D64006935
:100F4C006400686E64007374726D0066696C740082
:100F5C006C766C0061646448616E646C65720072DE
:100F6C00656D6F766548616E646C657200656E7553
:100F7C006D48616E646C657273004A534F4E5374C6
:100F8C007265616D4C6F6748616E646C657200616F
:100F9C00707000253031307520005D200025640014
:100FAC002C200028293A2000205B00636F64652008
:100FBC003D200025690064657461696C73203D20D7
:100FCC00000D0A0066006C6E00666E00636F64654F
:100FDC000064657461696C006E6F6E65007472619B
:100FEC00636500696E666F007761726E0065727280
:100FFC006F720070616E696300616C6C00000000C0
:10100C00000000000000000063090A08B3090A0888
:10101C00C1090A08B9080A0877090A0899090A08CF
:10102C0085090A08AD090A0865090A0869090A0848
:10103C0000000000000000000000000000000000A4
:10104C000000000000000000000000000000000094
:10105C000000000000000000000000000000000084
:10106C000000000000000000000000000000000074
:10107C000000000000000000000000000000000064
:10108C000000000000000000000000000000000054
:10109C0043000000B3000A08B7000A08BB000A08A6
:1010AC00B1030A0871040A0879080A0895080A08A5
:1010BC00A9080A085D0A0A08750A0A08A50A0A0896
:1010CC00F90A0A087D0B0A08410C0A08050D0A08E2
:0410DC000000000010
:0410E000000000000C
:1010E4001D0F0A08000000003C100A085C100A08E2
:1010F4007C100A080000000000000000000000004E
:10110400000000009C100A0800000000000000001D
:1011140000000000000000000000000000000000CB
:1011240000000000000000000000000000000000BB
:1011340000000000000000000000000000000000AB
:0811440000000000040000207F
:10114C00FFFFFFFF00000102030405060708090A60
:10115C000B0C0D0E0F101112131415161718191A5B
:08116C001B1C1D1E1F202800A2
:041174007856341263
:04000005080A001CC9
:00000001FF
