:02000002D0002C
:1040000000400D00CC740D00000006000C000501FE
:0840100004014E040000000051
:10401800086D0D0009480A49884208B505D0094AC3
:10402800824202D0121A02F0F1FD0748074A002125
:10403800121A02F011FE014808BD00BF30E2032049
:1040480030740D00A4E20320A8E20320F4E7032063
:1040580070B501F0B3FC074C074BE41AA40800251F
:104068001E46A54204D056F8253098470135F8E792
:1040780070BD00BF30740D00F0730D0000F046B83D
:1040880008B500F06FF8BDE8084001F065BC00F025
:1040980067BE00F06DBE00F06BBE000008B5034AB5
:1040A80000210C2000F0D0FDFEE700BFA14B0D0061
:1040B8000078B0FA80F04009704701230370704718
:1040C8007047000038B584690A4B036005467CB127
:1040D8006368013B63605BB9236820469B68984727
:1040E800A368013BA3601BB923682046DB68984797
:1040F800284638BD14710D0010B50446FFF7E2FFDD
:104108002046FFF7C6FF204610BD000008B501F0A5
:104118004BFB4FF4E13101F035FB01F045FB01F0B9
:1041280038FB0028F9D001F03FFB0A4901F0BFFC39
:10413800094B0021188801F0E5FE084B002118887A
:1041480001F0E0FE064B00211888BDE8084001F0A8
:10415800D9BE00BF1C6D0D0030E2032034E20320FD
:1041680038E20320F8B54F4B4F4E18884F4D504C4E
:1041780001F0D9FE02F08EF900224E4B02F03CF815
:1041880000224D4B02F016FB02F0E2FC4B4B306074
:10419800188801F0C8FE02F07DF90022454B02F0B4
:1041A8002BF80022444B02F005FB454BC5E9000102
:1041B800188801F0B8FE02F06DF900223D4B02F0BC
:1041C8001BF800223C4B02F0F5FA02F0C1FC20601B
:1041D80001F0EAFA3B4901F06AFC01F0E5FA3A49D4
:1041E80001F052FC01F0E0FA0746306802F064F989
:1041F80041EC100B0221384601F066FD01F0D4FABB
:10420800324901F054FC01F0CFFA314901F03CFC8D
:1042180001F0CAFA95ED000B022101F055FD01F0FD
:10422800C3FA2A4901F043FC01F0BEFA294901F01A
:104238002BFC01F0B9FA0746206802F03DF941EC81
:10424800100B0221384601F03FFD01F0ADFA1F497D
:1042580001F02DFC01F0A8FA1F4901F028FC1F48C5
:1042680000F046FBB8B1306802F026F941EC100BBB
:1042780002211B4800F09EFA95ED000B0221194817
:1042880000F098FA206802F017F941EC100B0221AF
:10429800154800F08FFA42F21070BDE8F84001F0BE
:1042A8003ABB00BF30E20320C8E20320D0E203207B
:1042B800D8E2032000409F400000794034E2032008
:1042C80038E203203A6D0D006B6D0D00806D0D0016
:1042D800836D0D00986D0D00AD6D0D00DCE20320BF
:1042E800B0E30320BCE30320C8E3032010B5044671
:1042F800FFF7CFFE204610BD73B51A4D1A4E1B4C62
:1043080000F072FC284601F0D7F8324618492846D2
:1043180001F020FE174B009340F25B72164B1749D1
:10432800204600F04FF8164B1649236032462046C7
:10433800C4F8D05001F00EFE21460023124A13485B
:1043480000F032FA21460023114A124800F02CFAF4
:10435800114A12480023214602B0BDE8704000F01F
:1043680023BA00BFACE20320A8E20320DCE203206A
:10437800CD400D00F56D0D00DE6D0D00E56D0D00F5
:104388006C700D00C9400D00166E0D00B0E30320DF
:10439800286E0D00BCE303203A6E0D00C8E303202D
:1043A80070B5044608460E4602F08EFC03122370D0
:1043B800607085B202342A463146204602F08CFCF1
:1043C800601970BD30B50361039B0D4D02814361D7
:1043D8000C4A056000234160C260C0F8BC30C0F8D8
:1043E800C030C0F8C430C0F8C830C0F8CC308361E1
:1043F800C36180F8203080F82130A0F8B83030BD93
:10440800546E0D007D6E0D002DE9F74F0FFA83FAFB
:10441800036801929D690122534606460C46A84747
:10442800C0B2012801D0002034E0651C04F1050B5E
:1044380080464FF0000933689B6901221F462946D0
:1044480053463046B847C0B20128ECD115F8013BB5
:1044580003F07F025D4502FB08994FEAC818E2D0D5
:104468001B06E8D4019B2C1B1B1B013B9945336899
:1044780006D9019A9F69013A121B534692B203E08A
:104488009F691FFA89F2534629463046B847C0B299
:10449800204480B203B0BDE8F08F0000F8B50546AF
:1044A8000C4616461F463B46962221462846FFF7ED
:1044B800ABFF48B12378B6EB131F05D001F074F9B0
:1044C800024901F0F4FAEEE7F8BD00BF7E6E0D0078
:1044D80010B5E02380F82230002380F823300368E9
:1044E80004465B69022200F12201984723682046AE
:1044F8001B69BDE81040184738B504460846102324
:1045080000F8023B0D462949FFF74AFF04230370D0
:1045180002234370A369ABB11B789BB10623437098
:1045280094F82030012B01D10E2302E0022B01D197
:104538001E23437094F82130012B02BF437843F0C7
:104548002003437023691B781BB1437863F07F0312
:10455800437063691B781BB1437843F04003437091
:10456800012383702C23C370E1680B781BB10430DE
:10457800FFF716FF02E0037143710630A16931B1FC
:104588000B7823B1FFF70CFFE169FFF709FF2169F9
:104598000B780BB1FFF704FF61690B780BB1FFF7DC
:1045A800FFFE401BC0B2831E6B7038BD9D6E0D00B0
:1045B8002DE9F843054610460E4691461F4602F07F
:1045C80083FB9DF82480BDF8204080B2B8F1000F2D
:1045D80001D1831C00E0031D4FEA480230469BB21C
:1045E80042F03002234400F8012B9BB203F07F0213
:1045F800DB0918BF42F0800200F8012B002BF5D12F
:104608004946FFF7CDFE0346B8F1000F0CD0B5F8C8
:10461800B820120A0270B5F8B8204270B5F8B82070
:1046280001320233A5F8B82022463946184602F06E
:10463800F8FA2044801B80B2BDE8F88373B59DF872
:10464800186000F1220504468DE8480013460A4622
:104658002946FFF7ADFF236802465B6929462046D5
:10466800984708B9002017E0B6B14FF4FA739622BC
:1046780029462046FFF7C8FE0428F3D194F82230D3
:104688001B11042BEED1A38CB4F8B8005BBA01332C
:104698009BB2C31A5842584102B070BDF7B50546DF
:1046A80010461F460E46144602F00EFB009783B2D2
:1046B800224631462846FFF7C1FF03B0F0BD38B5A2
:1046C8001D4682230B700C46B0F8B810090AA17079
:1046D800B0F8B830E370B0F8B8100131A0F8B810ED
:1046E8001146201DFFF75CFE00F8015B001BC0B2FD
:1046F800831E637038BD2DE9F0410368DB6804460A
:10470800984718B94FF0FF30BDE8F08104F1220551
:1047180029462046FFF7F0FE236882B25B692946E6
:10472800204698470028EDD041F27073962229461A
:104738002046FFF769FEC0B20428E3D1638CB3F5C5
:10474800087FDFD194F8250010B140B2BDE8F081B0
:1047580004F1B80704F1CC0857F8043FFBB103266D
:104768003A682946137912682046FFF7A8FF23689C
:1047780082B25B692946204698470028C2D04FF488
:10478800FA73092229462046FFF788FE38B9013E08
:1047980016F0FF06E4D16FF00100BDE8F08147454F
:1047A800DAD10020BDE8F08110B580E80600037278
:1047B80010BD000010B592B004460B4600220B490C
:1047C80002A88DED000B00F0DBFA9DED000B02A9AD
:1047D80053EC102B07A800F0D3FA237A07AA94E821
:1047E8000300FFF75BFF12B010BD00BFA26E0D0003
:1047F80000F0FAB908B5D0F8D00003681B6B9847E9
:10480800003018BF012008BDF8B506460F4614460B
:10481800C4B1D6F8D00003681B6B984708B90020CC
:10482800F8BDD6F8D000FA2C03682546A8BFFA25AB
:10483800DB682A463946984780B2241A8542A4B2D2
:10484800E6D0ECE70120F8BD2DE9F8430646884696
:1048580091461F461D460024D6F8D00003681B6BFE
:104868009847D0B1002D18DBD6F8D00003681B6933
:10487800984760B1D6F8D00003685B69984708F894
:1048880004000134A4B24C4507D03D46ECE70A3D8C
:104898000A202DB201F03FF8DEE72046BDE8F88394
:1048A80070B5044600F1220596220021284602F040
:1048B800D3F96168284602F0FFF9D4F8D0002289BC
:1048C800036829465E6A0023B047003018BF0120FC
:1048D80070BD10B50446D0F8D00003681B6B98472C
:1048E80020B1D4F8D0000368DB6A9847012010BDD6
:1048F80070B503689B6804469847C8B92046FFF717
:10490800FAFE042570B1013D15F0FF050AD02046D6
:10491800FFF7DEFD41F2883000F0FDFF2046FFF78B
:10492800EAFEEFE7236820469B68BDE87040184719
:1049380070BD00F059B9000008B5024B1B681B6830
:10494800019308BD4C02030008B5024B1B685B6865
:10495800019308BD4C02030008B5024B1B681B6994
:10496800019308BD4C02030008B5024B1B685B6944
:10497800019308BD4C02030008B5024B1B689B69F4
:10498800019308BD4C02030008B5024B1B68DB69A4
:10499800019308BD4C02030008B5024B1B681B6A53
:1049A800019308BD4C02030008B5024B1B685B6A03
:1049B800019308BD4C02030008B5024B1B689B69B4
:1049C800019308BD3802030008B5024B1B68DB6978
:1049D800019308BD3802030008B5024B1B681B6A27
:1049E800019308BD3802030008B5024B1B689B6A97
:1049F800019308BD3802030008B5024B1B681B6B06
:104A0800019308BD3802030008B5024B1B689B6B75
:104A1800019308BD3802030008B5024B1B681B6AE6
:104A2800019308BD2802030008B5024B1B685B6AA6
:104A3800019308BD2802030008B5024B1B689B6A56
:104A4800019308BD2802030008B5024B1B68DB6A06
:104A5800019308BD2802030008B5024B1B681B6BB5
:104A6800019308BD2802030008B5024B1B685B6B65
:104A7800019308BD2802030008B5024B1B681B6C94
:104A8800019308BD2802030008B5024B1B681B6888
:104A9800019308BD3C02030008B5024B1B68DB68A4
:104AA800019308BD3C02030008B5024B1B681B6953
:104AB800019308BD3C02030008B5024B1B685B6903
:104AC800019308BD3C02030008B5024B1B689B69B3
:104AD800019308BD3C02030008B5024B1B68DB6963
:104AE800019308BD3C02030008B5024B1B681B6A12
:104AF800019308BD3C02030008B5024B1B689B6A82
:104B0800019308BD3C02030008B5024B1B685B69B2
:104B1800019308BD6402030008B5024B1B681B6AB9
:104B2800019308BD6402030008B5024B1B689B6A29
:104B3800019308BD6402030008B5024B1B689B681B
:104B4800019308BD4802030008B5024B1B681B69A6
:104B5800019308BD4802030008B5024B1B685B6956
:104B6800019308BD4802030008B5024B1B681B6B84
:104B7800019308BD4802030008B5024B1B685B6C33
:104B8800019308BD4802030008B5024B1B685B6827
:104B9800019308BD1802030008B5024B1B68DB68C7
:104BA800019308BD1802030008B5024B1B685B6936
:104BB800019308BD1802030008B5024B1B685B6926
:104BC800019308BD6C02030008B5024B1B68DB6942
:104BD800019308BD3002030008B5024B1B681B6A2D
:104BE800019308BD3002030008B5024B1B681B681F
:104BF800019308BD2C02030008B5024B1B685B68D3
:104C0800019308BD2C02030008B5024B1B689B6882
:104C1800019308BD2C02030008B5024B1B681B6BEF
:104C2800019308BD2C02030008B5024B1B689B6862
:104C3800019308BD6802030008B5024B1B68DB68D6
:104C4800019308BD6802030008B5024B1B685B6B43
:104C5800019308BD6002030008B5024B1B681B6D79
:104C6800019308BD6002030008B5024B1B68DB6BAB
:104C7800019308BD4402030008B5024B1B685B683A
:104C8800019308BD4002030008B5024B1B689B68EE
:104C9800019308BD4002030008B5024B1B68DB689E
:104CA800019308BD4002030008B5024B1B681B694D
:104CB800019308BD4002030008B5024B1B685B69FD
:104CC800019308BD4002030008B5024B1B689B69AD
:104CD800019308BD4002030008B5024B1B68DB695D
:104CE800019308BD4002030008B5024B1B681B6A0C
:104CF800019308BD4002030008B5024B1B681B6BFB
:104D0800019308BD4002030008B5024B1B685B6BAA
:104D1800019308BD4002030008B5024B1B685B689D
:104D2800019308BD2002030008B5024B1B685B69AC
:104D3800019308BD2002030008B5034B1B68D3F894
:104D48008830019308BD00002002030008B5034B1A
:104D58001B68D3F89430019308BD000020020300BB
:104D680008B5024B1B681B68019308BD1C020300B1
:104D780008B5024B1B685B68019308BD1C02030061
:104D880008B5024B1B68DB68019308BD1C020300D1
:104D980008B5024B1B68DB6B019308BD1C020300BE
:104DA80000231A464068FFF767BF002202214068C7
:104DB800FFF772BF002211464068FFF765BF002267
:104DC80011464068FFF770BF00231A46194640682D
:104DD800FFF772BF00231A4619464068FFF774BFF1
:104DE800002281F001014068FFF776BF0022406889
:104DF800FFF782BF002211464068FFF785BF0022F7
:104E080011464068FFF770BF2DE9F043002495B0C4
:104E180016460D46074600F027FD214620220CA81D
:104E2800009401F019FF40230C9321466B460CAA0D
:104E38003046FFF701FF0446002844D1024601210D
:104E48006868FFF731FF0221804622466868FFF74D
:104E58002BFF009E81462146002E34D0002932D1F6
:104E68007368022B02D00A2B09D02AE0B8F1000F90
:104E780027D071693846043100F039FD20E0B9F1D6
:104E8800000F1ED07469112201A801F0E5FE062367
:104E98008DF8143001AD04F1080318341868596806
:104EA8002A4603C20833A3421546F7D101A906A82A
:104EB80007AD00F0E7FC0FCD3C1D0FC42B68237035
:104EC8000121F669C8E70098FFF7AEFE384615B02D
:104ED800BDE8F083024B034A1A6000225A6070470B
:104EE800D4E3032090700D00002211464068FFF7BC
:104EF800DBBE002211464068FFF7F6BE00221146CD
:104F08004068FFF701BF00224068FFF7F5BE0022A6
:104F180081F001014068FFF7DFBE00231A461946F9
:104F28004068FFF7D1BE00231A4619464068FFF7CC
:104F3800C3BE002211464068FFF7A6BE0022022128
:104F48004068FFF7A9BE00231A464068FFF794BEE1
:104F5800024B04225A60024A1A607047DCE30320BD
:104F6800C4700D0037B502AC036804F8011DDD6B91
:104F780001224FF0FF332146A84703B030BD10B4DB
:104F88000368DC6B4FF0FF33A4465DF8044B6047C1
:104F980037B502AC036804F8011DDD6B21461346E2
:104FA8000122A84703B030BD704738B543691A6875
:104FB800002A044605DAB3F88620B3F884309A420A
:104FC80001D001250BE003681B699847002814BF2E
:104FD8000125002503D123682046DB6A9847284627
:104FE80038BD43691868C043C00F70477047002038
:104FF800704710B50446FFF74CF8204610BDFFF780
:1050080048B800002DE9F0439846036893B0DB6A7E
:105018000C4606461746984712AB002543F8485DEC
:105028002A4629462046FFF707FE00283ADB009B60
:10503800002B39D05B69002B36D006A800F014FC91
:10504800009B5C696378022B01D1211D13E00A2BB8
:1050580014D11122294601A801F0FEFDA36833BB33
:10506800E36823BB4FF6FF702569FFF755FD8542BE
:105078001DD104F1140106A800F039FC06A800F0BF
:1050880013FC88B1336807ADD3F82090184B0C9304
:105098000FCD0DAC0FC42B6823703A4643460CA9BC
:1050A8003046C84704461CE04FF0FF3419E004F1CD
:1050B800080301AD1834186859682A4603C2083332
:1050C800A3421546F7D1062301A90CA80DAD8DF80A
:1050D800143000F0D7FB0FCD07AC0FC42B6823703A
:1050E800CCE70098FFF7A0FD204613B0BDE8F08399
:1050F80014720D007FB51646002242600292039298
:105108005A1C04460D4608D04FF47A72B3FBF2F1EC
:10511800029102FB11314A4303926069082300930C
:1051280041F205026B4440F6FF710068FFF744FC4A
:10513800002808DB60690023324629460068FFF72B
:105148005BFC002804DAFFF723FE03686360002095
:1051580004B070BD10B5036804469B689847A368FF
:10516800013BA3602BB923682046DB68BDE81040EB
:10517800184710BD70B504464D69054B44F8043B0B
:105188008C3506460FCD0FC42B682370304670BD92
:1051980014720D0010B54369B3F88620B3F8843053
:1051A8009A42044605D06269B2F8843013441879EB
:1051B80010BD03681B6998470028F4D14FF0FF30F1
:1051C80010BD10B54369B3F88620B3F884309A420D
:1051D800044608D06269B2F88430591C1344A2F816
:1051E8008410187910BD03681B6998470028F1D10D
:1051F8004FF0FF3010BDF8B543691746B3F8862065
:10520800B3F884309A4205460E4606D103681B69F6
:10521800984710B94FF0FF3414E06969B1F8843049
:10522800B1F88640E41ABC4228BF3C4619442246DD
:105238000431304601F0EAFC6A69B2F8843023444C
:10524800A2F884302046F8BD42690023A2F88430D1
:105258004269A2F8863070472DE9F0419846036804
:105268000D468AB0DB6A0646174698472B7D746957
:10527800042B0CBF02200A2006220121FFF7C4FBE1
:10528800206073691C68002C5BDB3046FFF7DCFF8D
:10529800B8F1000F17D0002303A95FFA88F0039331
:1052A800ADF81030FFF788FC002849DB7069062349
:1052B800009341F20B0203AB40F6FF710068FFF761
:1052C8007BFB00283CDB1C242246002103A801F0BC
:1052D800C3FC2B7D8DF80C40042B0CD102233846DF
:1052E8008DF80D30FFF720FCADF80E006868FFF769
:1052F80013FC049013E00A2338468DF80D30FFF7AD
:1053080013FC05ACADF80E002B1D05F11407186849
:105318005968224603C20833BB421446F7D1736961
:105328001C2203A91868FFF757FB002808DB2C1D6F
:105338000FCC76698C360FC623683370012404E0DD
:10534800044633683046DB6A984720460AB0BDE811
:10535800F08110B5436904461868002801DBFFF79F
:1053680033FB63694FF0FF321A6060691122002134
:105378008C3001F071FC2046BDE81040FFF764BF97
:1053880030B54269B2F886308BB004461BB1B2F82A
:1053980084209A4240D06369186800283FDBB3F83C
:1053A80086507F2D3BD8191DC5F18002082329445A
:1053B800FFF71AFB00280CDD6369B3F886200AB9E9
:1053C800A3F884206269B2F886301844A2F88600EF
:1053D80025E0FFF7DDFC03680B2B20D0FFF7D8FC96
:1053E80003680B2B1BD02023002502930395FFF79E
:1053F800CFFC036801930E4B009302AA2B460D497C
:105408003220FFF729FC63691868FFF7DDFA636942
:105418004FF0FF321A6002E0FFF716FFBBE7626940
:10542800B2F88630B2F88400181A0BB030BD00BF4D
:105438005F710D0058710D0010B50023044601601E
:10544800A0F88430A0F88630883000F00DFA2046A5
:1054580010BD00004FF47A7270B500238260144AC0
:1054680043600260436183610446A0200E46FEF754
:105478000EFE054610B13146FFF7DEFF1420FEF799
:1054880006FE034628B1012242608260094A026092
:105498000561A0696561A36128B14368013B436068
:1054A8000BB9FFF757FE2046FFF7CEFE204670BD2A
:1054B80014710D00F8700D0010B54FF0FF3104465F
:1054C800FFF7C8FF204610BD10B504460068002845
:1054D80001DBFFF779FA204610BD10B504692046B4
:1054E800FFF7F2FF24B12046BDE81040FEF7D1BD1A
:1054F80010BD002211464068FFF7F6BB0022114696
:105508004068FFF701BC00224068FFF7F5BB0022A6
:1055180081F001014068FFF7DFBB00231A461946F6
:105528004068FFF7D1BB00231A4619464068FFF7C9
:10553800C3BB002211464068FFF7B6BB00221146E4
:105548004068FFF7A1BB002202214068FFF7A4BB17
:1055580000231A464068FFF78FBB38B5054678B177
:10556800046844B1A3681BB103222146204698472A
:105578002046FEF78EFD2846BDE83840FEF789BD77
:1055880038BD10B103685B681847704710B50368E9
:105598000446BBB15868FFF7CFFA78B923685A7C3C
:1055A80012B95868FFF7D0FA23685868FFF7D4FA99
:1055B80020680023236028B1FFF7CFFF206808B1D7
:1055C800FFF7CBFF204610BD38B50B4B03600446F0
:1055D800D0F8CC0108B1FEF75EFDD4F8C4512DB166
:1055E8002846FFF7D3FF2846FEF753FDA06808B109
:1055F800FFF7C7FF204638BD78710D0038B50D4C50
:105608000D4B23600025022304F5E4706360A56058
:10561800C4F8C451C4F8C851FFF7AEFA074BC4F830
:10562800CC5123602046064A0649BDE8384000F0C0
:1056380091BC00BFE4E3032090700D0078710D0069
:10564800A8E20320D1550D00704710B50446FEF7B7
:1056580020FD204610BD000070B5084B03600446CD
:1056680000250E4640F80C5FFFF77EFA304626719B
:10567800FFF7AAFAA560204670BD00BFAC710D0007
:105688000079FFF7A9BA7047F8B5064615460C46E3
:105698008F18BC4206D0336814F8011B9B6830464B
:1056A8009847F6E72846F8BD0022007CFFF7B4B912
:1056B8000021007CFFF7B8B90021007CFFF7BCB9D6
:1056C8000021007CFFF7C0B90021007CFFF7C4B9B6
:1056D80010B50446FEF7DDFC204610BD10B50446A3
:1056E8004FF47A730846A3600021044B207461606C
:1056F8002360FFF7C1F9204610BD00BFBC710D0043
:105708000021007CFFF7B0B9417470477047002151
:10571800007CFFF731B90121007CFFF72DB9007C2F
:10572800FFF722B9007CFFF717B938B50446007CAB
:105738000D46FFF719F9002801DC607C20B12946E5
:10574800207CFFF721F9012038BD007CFFF724B940
:1057580010B50446FEF79DFC204610BD10B5044662
:10576800002363604FF47A73A360054B2360012321
:105778000846217463741146FFF7DEF8204610BD11
:10578800E4710D000022007CFFF7DEB8007CFFF713
:105798000BB9FFF7FBBF10B514220446002101F036
:1057A8005BFA204610BD000030B50E4D87B001A849
:1057B800FFF7F1FF296811F0010410D12846FEF720
:1057C80077FC60B101AA21460748FFF7C7FF2846C2
:1057D800FEF773FC054A0649034800F0BBFB024884
:1057E80007B030BDB4E50320B8E50320A8E20320E4
:1057F80015570D00704710B50446FEF74AFC2046C1
:1058080010BDF0B5037D062B8DB00E4600F10407E0
:105818004FF0000402D000F1080518E00CAD39463D
:1058280005F8304D2F232A460A20FFF76DF9284640
:1058380001F04AFA33680246DB6829463046984741
:105848000FE024B12E21304600F022F9044415F867
:10585800011D0A22304600F061F9BD420444F0D12E
:1058680020460DB0F0BD000010B5054B04461122CE
:1058780040F8043B002101F0EFF9204610BD00BFBD
:1058880014720D000346074A10B543F8042B01F1C2
:10589800100251F8044B43F8044B9142F9D10A78AD
:1058A8001A7010BD14720D00037D042B01D14068DD
:1058B80008E0062B0AD1436853B1836843B1C36833
:1058C80033B10069003018BF0120704700207047CD
:1058D8001846704710B59DF8084044EA032343EA88
:1058E800024242EA016104234160037510BD37B5E5
:1058F8000D788B784A78C97800912946FFF7EAFF36
:1059080003B030BD10B58368044613B103220146C5
:105918009847204610BD0021FFF706BA08B50C4B82
:1059280033B1FFF741FF03681B699847002809DC7A
:10593800084B63B100F010FA03681B699847002808
:1059480003DC08BDAFF30080F2E7AFF3008008BDC9
:10595800000000000000000008B5FFF7DFFFFFF7B8
:1059680023F9014B186008BD30E7032007B5002371
:1059780000931A466FF07701FFF7E8F903B05DF876
:1059880004FB000007B543880A2B08D0502B09D127
:10599800094B1B683BB103B05DF804EB1847FFF7F0
:1059A800E5FF06E0002300931A466FF07701FFF742
:1059B800CDF903B05DF804FBCCE5032010B5FFF783
:1059C800E3F8044601F050F9074B13B12046AFF352
:1059D800008000210448FFF747F900210348BDE88B
:1059E8001040FFF7A9B900BF000000008D590D0055
:1059F80010B50446FFF786FF204610BD0348044A49
:105A080004490023836000F0A5BA00BFD0E5032055
:105A1800A8E20320F9590D00024B1A68024B1A60DC
:105A2800704700BF3CE20320E0E50320014B024A37
:105A38001A607047E4E50320F7720D00F8B50646D2
:105A48000D468F180024BD420CD0336815F8011B91
:105A58009B6830469847002801DB0444F3E7002C94
:105A680008BF04462046F8BD70B505460C460846F2
:105A780049B101F029F92B68024621462846DB681E
:105A8800BDE87040184770BD08B5FFF7EDFF08BDC9
:105A980003689B68184738B50D210546FFF7F8FFDE
:105AA8000A2104462846FFF7F3FF204438BD38B5DD
:105AB8000546FFF7D9FF04462846FFF7ECFF2044C8
:105AC80038BD30B58BB00B4600218DF82410012A63
:105AD80098BF0A220DF12304B3FBF2F505FB12333C
:105AE80003F0FF03092B94BF30333733DBB2214671
:105AF80004F801392B46002DEED1FFF7B5FF0BB0A6
:105B080030BD10B42AB903685DF8044B9B68C9B26C
:105B18001847D2B25DF8044BFFF7D3BFFFF7F1BFC8
:105B28002DE9F04107460E4615462AB90368C9B261
:105B38009B68BDE8F04118470A2A02D1002901DA1A
:105B480004E0D2B2BDE8F041FFF7BBBF2D21FFF75B
:105B58009FFF2A46044671423846FFF7B2FF2044A9
:105B6800BDE8F0812DE9F04757EC106B82460D46F1
:105B780010EE102A3B4610EE100A394600F08AFF54
:105B880008B1484912E027F000494FF0FF32464B70
:105B98003046494600F07EFF68B94FF0FF32424B6D
:105BA8003046494600F058FF28B940495046FFF7AB
:105BB8005BFFBDE8F0874FF060423D4B3046394609
:105BC80000F05EFF08B13B49F0E74FF060423A4B06
:105BD8003046394600F036FF0028F4D10022002371
:105BE8003046394600F02EFF40B12D215046FFF7D0
:105BF8004FFF07F1004304461F4600E004462F49C3
:105C08004FF0000800205FFA88F39D4206D9002271
:105C18002B4B00F0CFFD08F10108F4E732463B4674
:105C280000F0ECFA0F46064600F072FF0A22014621
:105C380080465046FFF745FF04447DB3404600F0D8
:105C480019FC02460B463046394600F0D5FA06469E
:105C58000F4650461B49FFF707FF0444184B002224
:105C68003046394600F07CFC0F46064600F028FF17
:105C78000A22014680465046FFF752FF0444404638
:105C880000F008FC02460B463046394600F0B4FAEC
:105C9800013D15F0FF0506460F46DFD12046BDE859
:105CA800F08700BF1A730D00FFFFEF7F22730D000E
:105CB800FFFFEF411E730D00FFFFEFC10000E03F43
:105CC80000002440FD6F0D00C9B2FFF74BBF7047BD
:105CD80041747047007CFEF70FBF007CFEF7E4BEFE
:105CE800007CFEF7F1BE007CFEF7E6BE007CFEF706
:105CF800F3BE10B50446FEF7CCF9204610BD70B5CA
:105D0800457C04460E4625B9007CFEF7F5FE0028C2
:105D180005DD3146207CBDE87040FEF7BDBE284653
:105D280070BD000010B504460846114600226260A6
:105D38004FF47A72A260054A2260012220746274CC
:105D48001A46FEF7A1FE204610BD00BF30730D00B5
:105D5800007CFEF7C9BE000038B50C4D296811F06B
:105D6800010411D12846FEF7A3F968B1084A094B86
:105D780009482146FFF7D6FF2846FEF79EF9074A4D
:105D88000749054800F0E6F8034838BD80E60320D7
:105D980084E60320FCE50320E8E50320A8E20320CD
:105DA800D75C0D00044B00204FF6FF721870588026
:105DB8009A80FEF7B1BF00BF08E703200022114612
:105DC8004068FEF791BF002211464068FEF79CBF6D
:105DD80000224068FEF790BF002281F00101406870
:105DE800FEF77ABF00231A4619464068FEF76CBFD3
:105DF80000231A4619464068FEF75EBF0022114686
:105E08004068FEF751BF002211464068FEF73CBFCC
:105E1800002202214068FEF73FBF00231A4640686F
:105E2800FEF72ABF024B03225A60024A1A607047E3
:105E380010E7032060730D0038B50B4D296811F089
:105E480001040FD12846FEF733F958B12146074817
:105E5800FFF744FC2846FEF730F9054A0549034890
:105E680000F078F8014838BD18E703201CE7032044
:105E7800A8E203208F560D0070B50C4C0C4E0D4D4A
:105E880000212046FFF7E8FB20460B4C3246294606
:105E980000F060F801212046FFF7DEFB3246294674
:105EA8002046BDE8704000F055B800BF34E7032035
:105EB800A8E2032051560D0044E7032010B504461C
:105EC8000F48FFF7DDFB28B1A4F10B03022B01D823
:105ED800002010BDFFF7B0FFFFF712FC08B1012C3E
:105EE800F6D9FFF739FFFFF733FF18B1A4F109031B
:105EF800012BEDD9232C8CBF0020012010BD00BF41
:105F080034E70320232838B504460D460AD8FF296C
:105F180008D0FFF7D3FF28B129462046BDE838400E
:105F2800FEF772BE38BD0D2810B504469CBF0E346E
:105F3800A4B22046FFF7C2FF50B103212046FEF766
:105F48005BFE032804D12046BDE81040FEF764BE7E
:105F5800002010BD0B460146184600F049BE00005F
:105F6800184B1A68D1075CBF01221A60164B1A68D1
:105F7800D2075CBF01221A60144B1A68D0075CBFB5
:105F880001221A60124B1A68D1075CBF01221A60FD
:105F9800104B1A68D2075CBF01221A600E4B1A68B0
:105FA800D0075CBF01221A600C4B1A68D1075CBF8E
:105FB80001221A600A4B1A68D2075CBF01221A60D4
:105FC800704700BF70E703206CE7032068E70320F1
:105FD80064E7032060E703205CE7032058E7032019
:105FE80054E70320244B1A68D0075CBF01221A60CB
:105FF800224B1A68D1075CBF01221A60204B1A682D
:10600800D2075CBF01221A601E4B1A68D0075CBF1A
:1060180001221A601C4B1A68D1075CBF01221A6062
:106028001A4B1A68D2075CBF01221A60184B1A680B
:10603800D0075CBF01221A60164B1A68D1075CBFF3
:1060480001221A60144B1A68D2075CBF01221A6039
:10605800124B1A68D0075CBF01221A60104B1A68ED
:10606800D1075CBF01221A600E4B1A68D2075CBFC9
:1060780001221A60704700BFA0E703209CE70320B5
:1060880098E7032094E7032090E703208CE7032098
:1060980088E7032084E7032080E703207CE70320C8
:1060A80078E7032074E70320244B1A68D0075CBF05
:1060B80001221A60224B1A68D1075CBF01221A60BC
:1060C800204B1A68D2075CBF01221A601E4B1A685F
:1060D800D0075CBF01221A601C4B1A68D1075CBF4D
:1060E80001221A601A4B1A68D2075CBF01221A6093
:1060F800184B1A68D0075CBF01221A60164B1A6841
:10610800D1075CBF01221A60144B1A68D2075CBF22
:1061180001221A60124B1A68D0075CBF01221A606C
:10612800104B1A68D1075CBF01221A600E4B1A681F
:10613800D2075CBF01221A60704700BFD0E7032076
:10614800CCE70320C8E70320C4E70320C0E7032007
:10615800BCE70320B8E70320B4E70320B0E7032037
:10616800ACE70320A8E70320A4E70320184B1A682C
:10617800D1075CBF01221A60164B1A68D2075CBFB0
:1061880001221A60144B1A68D0075CBF01221A60FA
:10619800124B1A68D1075CBF01221A60104B1A68AB
:1061A800D2075CBF01221A600E4B1A68D0075CBF89
:1061B80001221A600C4B1A68D1075CBF01221A60D1
:1061C8000A4B1A68D2075CBF01221A60704700BFE9
:1061D800F0E70320ECE70320E8E70320E4E70320E7
:1061E800E0E70320DCE70320D8E70320D4E7032017
:1061F80081F0004102E000BF83F0004330B54FEA70
:1062080041044FEA430594EA050F08BF90EA020FDC
:106218001FBF54EA000C55EA020C7FEA645C7FEA6F
:10622800655C00F0E2804FEA5454D4EB5555B8BF92
:106238006D420CDD2C4480EA020281EA030382EA03
:10624800000083EA010180EA020281EA0303362D95
:1062580088BF30BD11F0004F4FEA01314FF4801C68
:106268004CEA113102D0404261EB410113F0004F7A
:106278004FEA03334CEA133302D0524263EB430331
:1062880094EA050F00F0A780A4F10104D5F1200ECF
:106298000DDB02FA0EFC22FA05F2801841F100012A
:1062A80003FA0EF2801843FA05F359410EE0A5F1FE
:1062B80020050EF1200E012A03FA0EFC28BF4CF02F
:1062C800020C43FA05F3C01851EBE37101F00045E5
:1062D80007D54FF0000EDCF1000C7EEB00006EEBF2
:1062E8000101B1F5801F1BD3B1F5001F0CD349087C
:1062F8005FEA30004FEA3C0C04F101044FEA4452D3
:1063080012F5800F80F09A80BCF1004F08BF5FEA59
:10631800500C50F1000041EB045141EA050130BD39
:106328005FEA4C0C404141EB010111F4801FA4F1DC
:106338000104E9D191F0000F04BF01460020B1FA31
:1063480081F308BF2033A3F10B03B3F120020CDA69
:106358000C3208DD02F1140CC2F10C0201FA0CF047
:1063680021FA02F10CE002F11402D8BFC2F1200CAC
:1063780001FA02F120FA0CFCDCBF41EA0C01904062
:10638800E41AA2BF01EB0451294330BD6FEA0404AB
:106398001F3C1CDA0C340EDC04F11404C4F1200296
:1063A80020FA04F001FA02F340EA030021FA04F3A8
:1063B80045EA030130BDC4F10C04C4F1200220FAFF
:1063C80002F001FA04F340EA0300294630BD21FA3D
:1063D80004F0294630BD94F0000F83F4801306BF03
:1063E80081F480110134013D4EE77FEA645C18BFF7
:1063F8007FEA655C29D094EA050F08BF90EA020F8E
:1064080005D054EA000C04BF1946104630BD91EA85
:10641800030F1EBF0021002030BD5FEA545C05D188
:106428004000494128BF41F0004130BD14F58004C7
:106438003CBF01F5801130BD01F0004545F0FE413B
:1064480041F470014FF0000030BD7FEA645C1ABF70
:10645800194610467FEA655C1CBF0B46024650EAA7
:10646800013406BF52EA033591EA030F41F40021D3
:1064780030BD00BF90F0000F04BF0021704730B559
:106488004FF4806404F132044FF000054FF000012E
:1064980050E700BF90F0000F04BF0021704730B5EF
:1064A8004FF4806404F1320410F0004548BF4042C4
:1064B8004FF000013EE700BF42004FEAE2014FEA19
:1064C80031014FEA02701FBF12F07F4393F07F4FF4
:1064D80081F06051704792F0000F14BF93F07F4F26
:1064E800704730B54FF4607401F0004521F0004169
:1064F80020E700BF50EA010208BF704730B54FF0EF
:1065080000050AE050EA010208BF704730B511F0F3
:10651800004502D5404261EB41014FF4806404F12B
:1065280032045FEA915C3FF4DCAE4FF003025FEAAD
:10653800DC0C18BF03325FEADC0C18BF033202EB35
:10654800DC02C2F1200300FA03FC20FA02F001FA8F
:1065580003FE40EA0E0021FA02F11444C1E600BF2E
:1065680070B54FF0FF0C4CF4E06C1CEA11541DBFE1
:106578001CEA135594EA0C0F95EA0C0F00F0DEF8AC
:106588002C4481EA030621EA4C5123EA4C5350EA91
:10659800013518BF52EA033541F4801143F48013E2
:1065A80038D0A0FB02CE4FF00005E1FB02E506F073
:1065B8000042E0FB03E54FF00006E1FB03569CF0C8
:1065C800000F18BF4EF0010EA4F1FF04B6F5007FCE
:1065D80064F5407404D25FEA4E0E6D4146EB060640
:1065E80042EAC62141EA55514FEAC52040EA5E50C9
:1065F8004FEACE2EB4F1FD0C88BFBCF5E06F1ED873
:10660800BEF1004F08BF5FEA500E50F1000041EBA9
:10661800045170BD06F0004646EA010140EA020056
:1066280081EA0301B4EB5C04C2BFD4EB0C0541EA78
:10663800045170BD41F480114FF0000E013C00F38D
:10664800AB8014F1360FDEBF002001F0004170BDB1
:10665800C4F10004203C35DA0C341BDC04F11404CA
:10666800C4F1200500FA05F320FA04F001FA05F256
:1066780040EA020001F0004221F0004110EBD37023
:1066880021FA04F642EB06015EEA430E08BF20EA4F
:10669800D37070BDC4F10C04C4F1200500FA04F3F2
:1066A80020FA05F001FA04F240EA020001F0004184
:1066B80010EBD37041F100015EEA430E08BF20EAF7
:1066C800D37070BDC4F1200500FA05F24EEA020E3F
:1066D80020FA04F301FA05F243EA020321FA04F06E
:1066E80001F0004121FA04F220EA020000EBD37025
:1066F8005EEA430E08BF20EAD37070BD94F0000F25
:106708000FD101F00046400041EB010111F4801F58
:1067180008BF013CF7D041EA060195F0000F18BF09
:10672800704703F00046520043EB030313F4801F45
:1067380008BF013DF7D043EA0603704794EA0C0FFF
:106748000CEA135518BF95EA0C0F0CD050EA410615
:1067580018BF52EA4306D1D181EA030101F0004192
:106768004FF0000070BD50EA410606BF10461946BA
:1067780052EA430619D094EA0C0F02D150EA0136C6
:1067880013D195EA0C0F05D152EA03361CBF104607
:1067980019460AD181EA030101F0004141F0FE41A6
:1067A80041F470014FF0000070BD41F0FE4141F42A
:1067B800780170BD70B54FF0FF0C4CF4E06C1CEA2A
:1067C80011541DBF1CEA135594EA0C0F95EA0C0FDF
:1067D80000F0A7F8A4EB050481EA030E52EA03359A
:1067E8004FEA013100F088804FEA03334FF08055BB
:1067F80045EA131343EA12634FEA022245EA1115E8
:1068080045EA10654FEA00260EF000419D4208BF98
:10681800964244F1FD0404F5407402D25B084FEA45
:106828003202B61A65EB03055B084FEA32024FF4F1
:1068380080104FF4002CB6EB020E75EB030E22BF4E
:10684800B61A754640EA0C005B084FEA3202B6EB0E
:10685800020E75EB030E22BFB61A754640EA5C00BD
:106868005B084FEA3202B6EB020E75EB030E22BF4D
:10687800B61A754640EA9C005B084FEA3202B6EB4E
:10688800020E75EB030E22BFB61A754640EADC000D
:1068980055EA060E18D04FEA051545EA16754FEA6F
:1068A80006164FEAC30343EA52734FEAC2025FEA8D
:1068B8001C1CC0D111F4801F0BD141EA00014FF01C
:1068C80000004FF0004CB6E711F4801F04BF0143ED
:1068D8000020B4F1FD0C88BFBCF5E06F3FF6AFAE09
:1068E800B5EB030C04BFB6EB020C5FEA500C50F199
:1068F800000041EB045170BD0EF0004E4EEA11311C
:1069080014EB5C04C2BFD4EB0C0541EA045170BD22
:1069180041F480114FF0000E013C90E645EA060E66
:106928008DE60CEA135594EA0C0F08BF95EA0C0F94
:106938003FF43BAF94EA0C0F0AD150EA01347FF4DC
:1069480034AF95EA0C0F7FF425AF104619462CE7B3
:1069580095EA0C0F06D152EA03353FF4FDAE104616
:10696800194622E750EA410618BF52EA43067FF467
:10697800C5AE50EA41047FF40DAF52EA43057FF4F7
:10698800EBAE12E74FF0FF3C06E000BF4FF0010C02
:1069980002E000BF4FF0010C4DF804CD4FEA410C66
:1069A8007FEA6C5C4FEA430C18BF7FEA6C5C1BD033
:1069B80001B050EA410C0CBF52EA430C91EA030FB4
:1069C80002BF90EA020F0020704710F1000F91EA11
:1069D800030F58BF994208BF90422CBFD8176FEADF
:1069E800E37040F0010070474FEA410C7FEA6C5CAD
:1069F80002D150EA013C07D14FEA430C7FEA6C5CB4
:106A0800D6D152EA033CD3D05DF8040B704700BFDF
:106A18008446104662468C461946634600E000BF2D
:106A280001B5FFF7B7FF002848BF10F1000F01BDFF
:106A38004DF808EDFFF7F4FF0CBF012000205DF8CA
:106A480008FB00BF4DF808EDFFF7EAFF34BF01204F
:106A580000205DF808FB00BF4DF808EDFFF7E0FFE8
:106A680094BF012000205DF808FB00BF4DF808ED39
:106A7800FFF7CEFF94BF012000205DF808FB00BFA0
:106A88004DF808EDFFF7C4FF34BF012000205DF882
:106A980008FB00BF4FEA410C7FEA6C5C02D150EA68
:106AA800013C0AD14FEA430C7FEA6C5C02D152EAFE
:106AB800033C02D14FF0000070474FF001007047CF
:106AC8004FEA410212F5001215D211D56FF478730E
:106AD800B3EB625212D94FEAC12343F0004343EAB1
:106AE800505311F0004F23FA02F018BF404270478C
:106AF8004FF00000704750EA013005D111F0004016
:106B080008BF6FF0004070474FF00000704700BFAB
:106B18004A0011D212F5001211D20DD56FF4787314
:106B2800B3EB62520ED44FEAC12343F0004343EA69
:106B3800505323FA02F070474FF00000704750EAB4
:106B4800013002D14FF0FF3070474FF0000070471E
:106B58004FEA4102B2F1E04324BFB3F5001CDCF177
:106B6800FE5C0DD901F0004C4FEAC0024CEA5070AF
:106B7800B2F1004F40EB830008BF20F001007047DE
:106B880011F0804F21D113F13872BCBF01F00040E1
:106B9800704741F480114FEA5252C2F11802C2F113
:106BA800200C10FA0CF320FA02F018BF40F0010094
:106BB8004FEAC1234FEAD32303FA0CFC40EA0C0046
:106BC80023FA02F34FEA4303CCE77FEA625307D183
:106BD80050EA01331EBF4FF0FE4040F440007047BA
:106BE80001F0004040F0FE4040F40000704700BF54
:106BF80010B5054C13462CB10A4601460220AFF3E6
:106C0800008010BD204610BD0000000010B5431ED6
:106C18000A44914204D011F8014B03F8014FF8E7F8
:106C280010BD884210B501EB020301D8421E0BE0EB
:106C38009842FBD28118D21AD34204D013F8014DDE
:106C480001F8014DF8E710BD994204D011F8014B45
:106C580002F8014FF8E710BD02440346934202D000
:106C680003F8011BFAE7704738B5124B1C68A36B91
:106C78000546D3B91820FEF773F843F20E33A06324
:106C880003804AF6CD33438041F2342383804EF2A9
:106C98006D63C3804DF6EC630381052343810B23A9
:106CA800838101220023C0E90423A36B00221D6114
:106CB8005A6138BDA0E20320034611F8012B03F8FE
:106CC800012B002AF9D17047034613F8012B002A3B
:106CD800FBD1181A0138704710B5034642B111F8B4
:106CE800014B03F8014B013A002CF7D11A4400E09C
:106CF80010BD934202D003F8014BFAE710BD000023
:106D08001D400D0059400D0085400D0089400D00C3
:106D18000000000053657269616C204D6F6E6974E4
:106D28006F7220557020616E642052756E6E696EA8
:106D380067002D2D2D2D2D2D2D2D2D2D2D2D2D2D6E
:106D48002D2D4461746120746F205075626C6973D5
:106D5800682D2D2D2D2D2D2D2D2D2D2D2D2D2D2D20
:106D68002D2D00582D4178697320416363656C654A
:106D7800726174696F6E2000204700592D4178694F
:106D88007320416363656C65726174696F6E20007E
:106D98005A2D4178697320416363656C657261742B
:106DA800696F6E20002D2D2D2D2D2D2D2D2D2D2D86
:106DB8002D2D2D2D2D2D2D456E64205075626C695D
:106DC80073682D2D2D2D2D2D2D2D2D2D2D2D2D2D6A
:106DD8002D2D2D2D2D0072617368617000696F2E45
:106DE80061646166727569742E636F6D0035393838
:106DF8003136396661336261393436333639343184
:106E08006133333039373665343265326300726145
:106E1800736861702F66656564732F47595F580002
:106E28007261736861702F66656564732F47595F77
:106E380059007261736861702F66656564732F47C6
:106E4800595F5A0000000000000000000000000028
:106E580000000000A5400D00A5400D00A5400D0054
:106E6800A5400D00A5400D00205B30780030005D86
:106E78002C20000A090044726F707065642061203C
:106E88007061636B657400556E6B6E6F776E20650D
:106E980072726F72004D51545400252525642E25B9
:106EA8006466004661696C656420746F207375625E
:106EB80073637269626500436F6E6E656374696FB0
:106EC8006E206661696C656400546865205365725C
:106ED80076657220646F6573206E6F7420737570A9
:106EE800706F727420746865206C6576656C206FAD
:106EF8006620746865204D5154542070726F746F09
:106F0800636F6C207265717565737465640054688D
:106F18006520436C69656E74206964656E74696682
:106F280069657220697320636F7272656374205596
:106F380054462D3820627574206E6F7420616C6C15
:106F48006F7765642062792074686520536572766E
:106F5800657200546865204D5154542073657276EB
:106F680069636520697320756E617661696C616219
:106F78006C6500546865206461746120696E2074D2
:106F880068652075736572206E616D65206F72206B
:106F980070617373776F7264206973206D616C66BA
:106FA8006F726D6564004E6F7420617574686F72DE
:106FB800697A656420746F20636F6E6E6563740010
:106FC8004578636565646564207265636F6E6E6598
:106FD80063742072617465206C696D69742E205029
:106FE8006C656173652074727920616761696E20D0
:106FF8006C617465722E00596F7520686176652022
:107008006265656E2062616E6E65642066726F6D82
:1070180020636F6E6E656374696E672E20506C65B1
:1070280061736520636F6E74616374207468652092
:107038004D515454207365727665722061646D6990
:107048006E6973747261746F7220666F72206D6FEF
:1070580072652064657461696C732E00000000001D
:1070680000000000C9400D00F5420D00FD470D006D
:10707800A9480D00DB480D0011480D0051480D00CE
:107088000000000000000000A94D0D00B34D0D00E8
:10709800BD4D0D00C74D0D00D14D0D00DD4D0D004E
:1070A800E94D0D00F54D0D00FD4D0D00074E0D008D
:1070B800114E0D0000000000000000004F4F0D00B1
:1070C800454F0D003B4F0D00F14E0D002F4F0D00A9
:1070D800234F0D00174F0D000F4F0D00054F0D00EA
:1070E800FB4E0D00114E0D000000000000000000D6
:1070F800F54F0D00FB4F0D00E3540D0007500D0038
:10710800F74F0D000000000000000000CD400D000A
:1071180001410D006D4F0D00874F0D0089530D0083
:10712800CB510D009D510D00B14F0D0061520D0066
:107138000D500D00FF510D005B530D00B34F0D00B6
:10714800EB4F0D00994F0D00FD500D007D510D00C6
:10715800776972696E670072656376206572726F0F
:1071680072203D202564000000000000000000009F
:1071780059550D004F550D0045550D003B550D0057
:107188002F550D0023550D0017550D000F550D00F7
:1071980005550D00FB540D00114E0D0000000000B8
:1071A8000000000051560D0053560D00000000006D
:1071B800000000008F560D00D9560D00B1560D0085
:1071C80091560D00B9560D00C1560D00C9560D0057
:1071D800D1560D00000000000000000015570D00FA
:1071E80059570D0033570D00455A0D002D570D0006
:1071F80017570D001F570D0053570D0027570D0047
:1072080011570D0000000000000000000B580D0091
:10721800FD570D00FF570D00252B3033643A2530FC
:1072280032750025592D256D2D25645425483A259C
:107238004D3A2553257A0061736374696D65006C56
:107248006E00666E00636F64650064657461696CE6
:10725800000D0A00253031307520005D20002829F6
:107268003A2000205B00636F6465203D200025699B
:107278000064657461696C73203D20006261756407
:107288000053657269616C0053657269616C310005
:107298007479706500706172616D00636D64006976
:1072A8006400686E64007374726D0066696C7400C3
:1072B8006C766C0061646448616E646C657200721F
:1072C800656D6F766548616E646C657200656E7594
:1072D8006D48616E646C657273004A534F4E537407
:1072E8007265616D4C6F6748616E646C65720061B0
:1072F8007070006E6F6E6500747261636500696E10
:10730800666F007761726E0070616E696300616C10
:107318006C006E616E006F766600696E6600000034
:107328000000000000000000D75C0D00FB5C0D00B1
:10733800075D0D00455A0D00E35C0D00EF5C0D0084
:10734800E95C0D00F55C0D00D95C0D00DD5C0D00FD
:107358000000000000000000235E0D00195E0D0013
:107368000F5E0D00055E0D00F95D0D00ED5D0D0071
:10737800E15D0D00D95D0D00CF5D0D00C55D0D000F
:10738800114E0D0000000000000000000000000089
:1073980000000000000000000000000000000000E5
:1073A80000000000000000000000000000000000D5
:1073B80000000000000000000000000000000000C5
:1073C80000000000000000000000000000000000B5
:1073D80000000000000000000000000000000000A5
:1073E800000000004300000001430D00F9470D00B4
:1073F8003B490D00DD4E0D00594F0D0005560D009F
:10740800055A0D00215A0D00355A0D00AD5D0D00CD
:107418002D5E0D00815E0D00695F0D00ED5F0D00B2
:08742800B1600D0075610D005B
:107430001300000012000000110000003F720D0058
:10744000000000008C730D00AC730D00CC730D00B8
:10745000000000000000000000000000000000002C
:10746000EC730D00000000000000000000000000B0
:10747000000000000000000000000000000000000C
:1074800000000000000000000000000000000000FC
:1074900000000000000000000000000000000000EC
:0474A00040E20320A3
:1074A400FFFFFFFF00000102030405060708090AA5
:1074B4000B0C0D0E0F101112131415161718191AA0
:0874C4001B1C1D1E1F202800E7
:0474CC0078563412A8
:04000003D0004018D1
:00000001FF
